:040000009BEF02F080
:08000800046ED8CF05F0E0CF33
:1000100006F00001E9CF0CF0EACF07F0E1CF08F0DD
:10002000E2CF09F0D9CF0AF0DACF0BF0F3CF12F01C
:10003000F4CF13F0FACF14F0F5CF15F0F6CF16F099
:10004000F7CF17F000C00EF001C00FF002C010F0A3
:1000500003C011F09DAA30EF00F09EBA6FEF00F0E0
:100060000EC000F00FC001F010C002F011C003F08C
:100070000CC0E9FF07C0EAFF078E08C0E1FF09C016
:10008000E2FF0AC0D9FF0BC0DAFF12C0F3FF13C0B2
:10009000F4FF14C0FAFF15C0F5FF16C0F6FF17C035
:1000A000F7FF045006C0E0FF05C0D8FF1000234D45
:1000B000443030304100234347303400234944303A
:1000C0003030390023414B300000233F49000A52B1
:1000D000455345543A2573562E312E3345009EAA7A
:1000E0000CD0036A5850260FE96E000E0320EA6E0A
:1000F0009EAAFED7AECFEFFF582A9E9A30EF00F0AF
:100100005325754E3133342E335532302E30303046
:1001100041323054315325754E3133342E33413210
:100120003054315325754E3133342E3341323054EF
:10013000315325754E3133342E33413230543153DF
:1001400025754E3133342E334132305431532575B9
:100150004E3133342E3341323054315325754E31C4
:1001600033342E3341323054315325754E313334CC
:100170002E3341323054315325754E3133342E33C2
:1001800041323054315325754E3133342E334132A0
:100190003054314500000900F5520DE0F6CF5FF014
:1001A000F7CF60F0F5509EA8FED7AD6E5FC0F6FFAA
:1001B00060C0F7FFF0D712009EA8FED7AD6E120008
:1001C000EA6A610EE96EEF500EE0050E016E006AFC
:1001D000002EFED7012EFBD72E0E006E002EFED76E
:1001E00000D0EF2EF2D71200AE0EF66E000EF76EB4
:1001F000D2DF0D0EE1DFC80E616FE2DFB60EF66EE4
:10020000000EF76EC8DF0D0ED7DFC80E616FD8DFA6
:10021000BC0EF66E000EF76EBEDF0D0ECDDFC80E03
:10022000616FCEDFC40EF66E000EF76EB4DF0D0EFA
:10023000C3DFC80E616FC4DFF6EF02F060C062F08A
:100240005FC061F062C003F061C0E9FF62C0EAFF15
:10025000EF5204E0612BD8B4622BF4D75F50615D9C
:10026000006E60516259036E00C001F0026E120010
:100270006151400805E2370E615D016E04D003D084
:10028000300E615D016E120062516403F3CF01F024
:10029000F4CF00F06503F350002663516403F3507C
:1002A0000020026E12005F6A5F5031080AE3036AA1
:1002B0005F50260FE96E000E0320EA6EEF6A5F2A98
:1002C000F3D7586A1200CA0EF66E000EF76E63DF9F
:1002D0000D0E72DFC80E616F73DF5E6A606B260EF3
:1002E0005F6EACDF02C060F001C05FF0010E015C28
:1002F000006E000E0258036E00C001F0035203E1CD
:1003000001505E5C2EE2036A5E50260FE96E000E1D
:100310000320EA6EEF50240822E1036A5E50260FA4
:10032000016E000E032201C05FF003C060F0010EF9
:100330005E24036A260F016E000E032201C061F0E5
:1003400003C062F060C0EAFF5FC0E9FF03C0E2FFE4
:1003500001C0E1FFE752E6CFEEFFFCE15E065E2A58
:10036000BDD7EA6A210EE96EE26A260EE16EE75217
:10037000E6CFEEFFFCE126C061F07ADF636B01C0DF
:1003800062F0100E656F646B7FDF02C060F001C029
:100390005FF027C061F06CDF636B01C062F0010E9B
:1003A000656F646B71DF02C003F001505F2602507D
:1003B000602328C061F05CDF0150100DF3505F2610
:1003C000000E602329C061F053DF01505F24596E95
:1003D0006ADFFEEF02F094948B940C0EBD6EB76A48
:1003E000B66A010EB96EFC0E0F014917000E4913D3
:1003F0000609BA6E5FC0BBFF0001606B5E50605DB6
:1004000012E24B0EBE6EBD50CF0BBD6E320E616F51
:10041000D7DEBE68BD50CF0B3009BD6E190E616FBF
:10042000CFDE602BEBD7F00EBD1612000900F6CF21
:1004300068F0F7CF69F0F5509EA8FED7AD6E68C0A2
:10044000F6FF69C0F7FF672FF1D71200EF5210E0F7
:10045000EACF5FF0E9CF5EF0EF509EA8FED7AD6E19
:100460005FC0EAFF5EC0E9FFE92AD8B4EA2AEED706
:1004700045EF02F0CE0EF66E000EF76E070E676FB8
:10048000D5DFEA6A210EE96EE1D7D70EF66E000ECF
:10049000F76E060E676FCADF948282B2FDD710EF47
:1004A00003F06A51016A695D03E269C000F00CD093
:1004B000006A080E6B6F693700366A51005CD8B06D
:1004C000006E01366B2FF7D71200015067C069F03C
:1004D000640E6A6FE6DF00C067F00150300E07E17E
:1004E00068A30DD068B70BD068B9200E03D0689709
:1004F00068996881012601509EA8FED7AD6E67C03D
:1005000069F00A0E6A6FCDDF00C067F00150300E4F
:1005100006E168B709D068A107D068B9200E0126A6
:1005200001509EA8FED7AD6E300E672767519EA87A
:10053000FED7AD6E1200F86AD09E078E700ED36E95
:100540009B9C9B9EB8960C0EAF6EA20EAC6E900E4E
:10055000AB6E7086A00E756E010E766EA60E726E74
:10056000900E716E596A5A6A5C6A5B6A0F01386B49
:10057000396B3A6B776A786A796A206A6E0E1F6EF9
:100580000E0E00016F6FC60E6E6F716B706B05D033
:1005900002001900003340260000000EF86E050E20
:1005A000F76E900EF66E0900F550006E000A13E02B
:1005B0000900F550016EE8BE05D00F0BEA6E090088
:1005C000F5CFE9FF01BC090001AC0900F5CFEEFF52
:1005D000004EE9D7F9D7F86A720ED36E700ED36E5B
:1005E0009B9C9B9E9D8AC00EF212FED5080E5E6EED
:1005F000FA0E616FE5DD5E2EFBD765D6929889987D
:10060000010E5E6EED0E5F6EE6DE010E5E6ED30EC7
:100610005F6EE1DE010E5E6EBC0E5F6EDCDE2AD721
:10062000010E585C036A260FE96E000E0320EA6E85
:10063000EF500D08D8A4CBD05D6A5D6A606B260EC2
:100640005F6EFCDD02C003F00150035204E1015073
:100650005D5CD8B0BCD0036A5D50260FE96E000E19
:100660000320EA6EEF503F08D8A4AFD0010E5D24FE
:10067000036A260FE96E000E0320EA6EEF503F0872
:10068000D8A4A3D0010E5A245E6E020E5A245F6EC7
:10069000030E5A24606F040E5A24616F050E5A240B
:1006A000626F060E5A24636F070E5A24646F080E99
:1006B0005A24656F090E5A24666F530E9EA8FED702
:1006C000AD6E5AC067F01B0E686FFFDE030EF66E4C
:1006D000010EF76E130E676FA9DE5EC067F01B0E8A
:1006E000686FF3DE180EF66E010EF76E0C0E676F74
:1006F0009DDE5FC067F01B0E686FE7DE260EF66EAC
:10070000010EF76E0C0E676F91DE60C067F01B0E76
:10071000686FDBDE340EF66E010EF76E0C0E676F3F
:1007200085DE61C067F01B0E686FCFDE420EF66E8D
:10073000010EF76E0C0E676F79DE62C067F01B0E5C
:10074000686FC3DE500EF66E010EF76E0C0E676F0B
:100750006DDE63C067F01B0E686FB7DE5E0EF66E6F
:10076000010EF76E0C0E676F61DE64C067F01B0E42
:10077000686FABDE6C0EF66E010EF76E0C0E676FD7
:1007800055DE65C067F01B0E686F9FDE7A0EF66E51
:10079000010EF76E0C0E676F49DE66C067F01B0E28
:1007A000686F93DE880EF66E010EF76E0C0E676FA3
:1007B0003DDE140E616F04DD948282B2FDD7020E1D
:1007C0005E6E760E5F6E07DE6EDD5D2A37D728D748
:0207D000FFD751
:020000040030CA
:0E00000000E8193C00BF00000FC00FE00F40E9
:00000001FF
;PIC18F26K22
;CRC=E181  CREATED="02-Aug-18 08:33"
